:020000040800F2
:1000000090440020018400086D8400086D8400087D
:100010006D8400086D8400086D84000800000000F5
:100020000000000000000000000000006D840008D7
:100030006D840008000000006D84000821F20108B2
:100040006D8400086D8400086D8400086D840008CC
:100050006D8400086D8400086D8400086D840008BC
:100060006D8400086D8400086D8400086D840008AC
:100070006D8400086D8400086D8400086D8400089C
:100080006D8400086D8400086D8400086D8400088C
:100090006D8400086D8400086D8400086D8400087C
:1000A0006D8400086D8400086D8400086D8400086C
:1000B0007D1500089D1300086D8400086D840008FC
:1000C0006D8400086D8400086D8400086D8400084C
:1000D0006D8400085502000825040008AD8D000855
:1000E0006D8400086D8400086D8400086D8400082C
:1000F0006D8400086D8400086D8400086D8400081C
:100100006D8400086D840008058300086D84000874
:1001100079050008950600086D8400086D840008C4
:100120006D8400086D8400086D8400086D840008EB
:100130006D8400086D8400086D8400086D840008DB
:100140006D8400086D8400086D8400086D840008CB
:100150006D8400086D8400086D840008750900082E
:100160006D8400086D8400086D8400086D840008AB
:100170006D8400086D8400086D8400086D8400089B
:100180006D8400086D84000880B582B000AF78608F
:100190000121102008F082FD0121022008F03EFD1F
:1001A000274BC0221A60264B02221A71244B0222CE
:1001B0005A71234B00229A71214B0122DA71204996
:1001C00020481EF0CBFD072206211E481EF08EFEA1
:1001D000072207211B481EF089FE1B4A7B6813601B
:1001E000194B00229A80184B0022DA80164B00220D
:1001F0001A81154B00229A81134B0C225A81124905
:10020000124800F0B1FD012240F225510F4800F0E4
:1002100099FE0F4B25221A700D4B00225A700C4B81
:1002200001229A700A4B0122DA7009481FF002FA83
:100230000121064800F054FE00BF0837BD4680BDCE
:1002400084100020000402408C10002000100140A7
:10025000A010002080B582B000AF40F22551374891
:1002600000F0D4FE0346002B64D0344B9B889BB235
:10027000FB71334B1B68013B042B48D801A252F899
:1002800023F000BF99020008B1020008C90200086B
:10029000E1020008F9020008284B9B889BB2DAB201
:1002A000284B1A70264B1B680133254A13602FE038
:1002B000224B9B889BB2DAB2224B5A70204B1B68B0
:1002C00001331F4A136023E01C4B9B889BB2DAB2B8
:1002D0001C4B9A701A4B1B680133194A136017E0C4
:1002E000164B9B889BB2DAB2164BDA70144B1B6824
:1002F0000133134A13600BE0104B9B889BB2DAB2B8
:10030000104B1A710E4B40F22B321A6000E000BF06
:10031000FA790D4B1B689A4209D10C4B1B781A468F
:100320000B4B1B689A4202D1054B01221A60074A07
:10033000FB79137000BF0837BD4680BD0010014037
:10034000FC0B00202414002044000020C00D0020DD
:100350004000002080B582B000AF786001214FF4EA
:10036000003008F07BFC0121012008F057FC284BED
:100370000C221A60264B02221A71254B02225A7156
:10038000234B00229A71224B0122DA712049214825
:100390001EF0E4FC072202211E481EF0A7FD0722E2
:1003A00003211C481EF0A2FD1B4A7B6813601A4BF8
:1003B00000229A80184B4FF40052DA80164B00222C
:1003C0001A81154B00229A81134B0C225A81124933
:1003D000124800F0C9FC012240F225510F4800F0FC
:1003E000B1FD0F4B26221A700D4B00225A700C4B98
:1003F00001229A700A4B0122DA7009481FF01AF99B
:100400000121064800F06CFD00BF0837BD4680BDE5
:1004100084100020000002408C10002000440040A6
:10042000A010002080B582B000AF40F225511848DE
:1004300000F0ECFD0346002B25D0154B9B889BB2AA
:10044000FB71144B1B68012B0BD1114B9B889BB28A
:100450001A46114B1A600F4B1B6801330D4A13608B
:1004600000BFFA790D4B1B689A4209D10C4B1B78DF
:100470001A460C4B1B689A4202D1064B01221A60A5
:10048000074AFB79137000BF0837BD4680BD00BF27
:1004900000440040F40B0020C80C00204400002061
:1004A000C10D00204000002080B582B000AF786010
:1004B00001214FF4002008F0D1FB0121042008F0B5
:1004C000ADFB284B4FF440621A60264B02221A7192
:1004D000244B02225A71234B00229A71214B012294
:1004E000DA71204920481EF039FC08220A211E48F2
:1004F0001EF0FCFC08220B211B481EF0F7FC1B4AD7
:100500007B681360194B00229A80184B0022DA8016
:10051000164B00221A81154B00229A81134B0C2294
:100520005A811249124800F01FFC012240F2255165
:100530000F4800F007FD0F4B34221A700D4B0022BC
:100540005A700C4B01229A700A4B0122DA7009484A
:100550001FF070F80121064800F0C2FC00BF083708
:10056000BD4680BD84100020000802408C10002091
:10057000004C0040A010002080B500AF40F2255193
:10058000024800F043FD00BF80BD00BF004C0040AA
:1005900080B582B000AF786001214FF4801008F080
:1005A0005DFB0121042008F039FB344B4FF48052ED
:1005B0001A60324B02221A71304B02225A712F4BB1
:1005C00000229A712D4B0122DA712C492C481EF021
:1005D000C5FB0121082008F021FB284B04221A60EA
:1005E000264B02221A71254B02225A71234B0022FC
:1005F0009A71224B0122DA71204922481EF0AEFB8B
:1006000008220C211E481EF071FC082202211D4800
:100610001EF06CFC1C4A7B6813601B4B00229A8006
:10062000194B0022DA80184B00221A81164B002247
:100630009A81154B0C225A811349144800F094FBFF
:10064000012240F22551114800F07CFC104B35226C
:100650001A700F4B00225A700D4B01229A700C4BEE
:100660000122DA700A481EF0E5FF0121074800F078
:1006700037FC00BF0837BD4680BD00BF8410002096
:1006800000080240000C02408C1000200050004086
:10069000A010002080B582B000AF40F2255176480E
:1006A00000F0B4FC0346002B00F0E280724B9B8804
:1006B0009BB2FB71714B1B68013B0A2B00F2B080AF
:1006C00001A252F823F000BFF50600080D0700084C
:1006D000250700083D070008790700089107000872
:1006E000A9070008C1070008D9070008F10700089A
:1006F00009080008604B9B889BB21A46604B1A6041
:100700005E4B1B6801335D4A136089E05A4B9B883E
:100710009BB21A465A4B5A60584B1B680133574AD2
:1007200013607DE0544B9B889BB21A46544B9A60F1
:10073000524B1B680133514A136071E0504B1A68E9
:10074000504B1B689A420BD14B4B9B889BB21A466D
:100750004B4BDA60494B1B680133484A13605FE03A
:10076000454B9B889BB21A46454BDA60434B1B684E
:100770003F33424A136053E03F4B9B889BB21A467B
:100780003F4B1A613D4B1B6801333C4A136047E005
:10079000394B9B889BB21A46394B5A61374B1B68C1
:1007A0000133364A13603BE0334B9B889BB21A46B9
:1007B000334B9A61314B1B680133304A13602FE091
:1007C0002D4B9B889BB21A462D4BDA612B4B1B6835
:1007D00001332A4A136023E0274B9B889BB21A46B9
:1007E000274B1A62254B1B680133244A136017E01C
:1007F000214B9B889BB21A46214B5A621F4B1B68A8
:1008000001331E4A13600BE01B4B9B889BB21A46B8
:100810001B4B9A62194B1B683F33184A136000BF89
:10082000FA79194B1B689A4209D1184B1B781A4662
:10083000174B1B689A4202D1104B01221A60134ACF
:10084000FB7913700E4B5A68124B1B689A420FD1FA
:100850000B4B1A68104B1B689A4209D00F4B1A6851
:100860000F4B1B689A4203D10A4B1B680D4A136059
:1008700000BF0837BD4680BD00500040FC0C002082
:10088000140D00205000002044000020C20D002064
:10089000400000204C02002008000020680D0020CD
:1008A00050020020600D002080B582B000AF78605B
:1008B0000121202008F0F2F90121042008F0AEF90E
:1008C000274BC0221A60264B02221A71244B0222A7
:1008D0005A71234B00229A71214B0122DA7120496F
:1008E00020481EF03BFA082206211E481EF0FEFAA0
:1008F000082207211B481EF0F9FA1B4A7B68136087
:10090000194B00229A80184B0022DA80164B0022E5
:100910001A81154B00229A81134B0C225A811249DD
:10092000124800F021FA012240F225510F4800F050
:1009300009FB0F4B47221A700D4B00225A700C4BCB
:1009400001229A700A4B0122DA7009481EF072FEE9
:100950000121064800F0C4FA00BF0837BD4680BD3B
:1009600084100020000802408C1000200014014078
:10097000A010002080B582B000AF40F225511F4882
:1009800000F044FB0346002B34D01C4B9B889BB2E9
:10099000FB711B4B1B68012B02D0022B0CD017E004
:1009A000164B9B889BB21A46164B1A60144B1B6859
:1009B0000133134A13600BE0104B9B889BB21A461D
:1009C000114B1A600E4B1B680D330D4A136000BFAC
:1009D000FA790E4B1B689A4209D10D4B1B781A46C7
:1009E0000C4B1B689A4202D1054B01221A60084A3F
:1009F000FB79137000BF0837BD4680BD001401406D
:100A0000F80B0020E40C0020EC0C00204400002037
:100A1000C30D0020400000200EB480B482B000AFAF
:100A2000786000BF0837BD465DF8047B03B07047AF
:100A300080B582B000AF7860396000BF80217868EF
:100A400000F0C8FA0346002BF8D03B689BB2194669
:100A5000786800F065FA00BF0837BD4680BD00BF6A
:100A600080B500AF0D4B1B68052B07D90C490D480D
:100A7000FFF7D2FF094B00221A600DE0074B5B68BD
:100A80001A4609490748FFF7C7FF044B1B681A4677
:100A900006490448FFF7C0FF00BF80BDC80C002016
:100AA0003C7E020800100140447E0208587E020885
:100AB00098B500AF1EF036FB20F094F89C4B1B68F5
:100AC000002B04D19B4B1B68002B40F0CE800122F1
:100AD000012199481FF0CEFF954B1B68002B3DD19B
:100AE0001EF094FD002101201EF060FD934B1A685A
:100AF000934B1B689349944823F028F992481EF0C1
:100B000041FD012100201EF051FD8A4B1B681A4651
:100B10008E498D4823F01AF98B481EF033FD0221CF
:100B200000201EF043FD884A894B144607CB206005
:100B30006160A26084481EF025FD032100201EF0A4
:100B400035FD844B1B681A4683497F4823F0FEF825
:100B50007D481EF017FD64201EF0A0FB754B1B683E
:100B6000012B40D11EF052FD002101201EF01EFD80
:100B7000724B1A68724B1B687249734823F0E6F88F
:100B800071481EF0FFFC012100201EF00FFD6E4A8F
:100B9000724B03CB1060516019889B78118193725E
:100BA00069481EF0EFFC022100201EF0FFFC604BA4
:100BB0001B681A466A49644823F0C8F862481EF068
:100BC000E1FC032100201EF0F1FC624B1B681A4679
:100BD00061495D4823F0BAF85B481EF0D3FC6420FD
:100BE0001EF05CFB92E0012007F0E6FA1EF00EFD1D
:100BF000002101201EF0DAFC504B1A68504B1B6894
:100C00005049514823F0A2F84F481EF0BBFC012187
:100C100000201EF0CBFC474B1B681A464B494A4844
:100C200023F094F848481EF0ADFC022100201EF08D
:100C3000BDFC3F4B1B681A464949434823F086F8E0
:100C400041481EF09FFC032100201EF0AFFC414BE9
:100C50001B681A4640493C4823F078F83A481EF091
:100C600091FC64201EF01AFB50E0314B1B68002BF6
:100C70004CD11EF0CBFC002101201EF097FC2F4B25
:100C80001A682F4B1B682F492F4823F05FF82E4816
:100C90001EF078FC012100201EF088FC254B1B680B
:100CA0001A462A49284823F051F827481EF06AFCC2
:100CB000022100201EF07AFC1D4B1B681A462849B1
:100CC000214823F043F820481EF05CFC032100205B
:100CD0001EF06CFC1F4B1B681A461F491A4823F074
:100CE00035F819481EF04EFC64201EF0D7FA4FF478
:100CF00080411C481EF0EAF8002201210E481FF036
:100D0000B9FE4FF4804117481EF0E0F84FF48041DF
:100D100014481EF0DBF80022012107481FF0AAFE4C
:100D20004FF480410F481EF0D1F800BF98BD00BFBE
:100D3000C80C002034140020000C0040E40C0020FB
:100D4000EC0C00206C7E0208540E0020787E020815
:100D5000887E020844120020947E0208A07E0208C9
:100D6000AC7E0208000C024080B58AB000AF78600B
:100D7000396000237B6200233B620023FB61002378
:100D8000BB617B681B8A9BB27B627B6A23F4405306
:100D90007B623B68DB881A467B6A13437B627B6A13
:100DA0009AB27B681A827B689B899BB27B627B6A62
:100DB00023F4B05323F00C037B623B689A883B68B2
:100DC0001B8913439AB23B685B8913439BB21A4653
:100DD0007B6A13437B627B6A9AB27B689A817B68E9
:100DE0009B8A9BB27B627B6A23F440737B623B6885
:100DF0009B891A467B6A13437B627B6A9AB27B6843
:100E00009A8207F10803184607F05EFE7B68314AB4
:100E1000934203D07B68304A934202D17B693B62A4
:100E200001E03B693B627B689B899BB29BB21BB232
:100E3000002B0CDA3A6A13469B0013449A001A44BA
:100E40003B681B685B00B2FBF3F3FB610BE03A6AA3
:100E500013469B0013449A001A443B681B689B008E
:100E6000B2FBF3F3FB61FB691C4AA2FB03235B09A2
:100E70001B017B627B6A1B09642202FB03F3FA6994
:100E8000D31ABB617B689B899BB29BB21BB2002BC0
:100E90000CDABB69DB003233104AA2FB03235B0987
:100EA00003F007037A6A13437B620BE0BB691B0103
:100EB00032330A4AA2FB03235B0903F00F037A6A69
:100EC00013437B627B6A9AB27B681A8100BF283722
:100ED000BD4680BD00100140001401401F85EB514C
:100EE00080B483B000AF78600B46FB70FB78002BBA
:100EF00008D07B689B899BB243F400539AB27B680D
:100F00009A8107E07B689B899BB223F400539AB2D5
:100F10007B689A8100BF0C37BD465DF8047B704743
:100F200080B483B000AF78600B467B807B88C3F3CE
:100F300008039AB27B689A8000BF0C37BD465DF803
:100F4000047B704780B487B000AF78600B467B802D
:100F500013467B7000233B610023FB600023BB60D2
:100F600000237B617B687B617B88DBB25B09DBB242
:100F70003B617B8803F01F03FB600122FB6802FAE0
:100F800003F3BB603B69012B03D17B690C337B61AD
:100F900009E03B69022B03D17B6910337B6102E0DE
:100FA0007B6914337B617B78002B06D07B697A697F
:100FB0001168BA680A431A6006E07B697A691168A9
:100FC000BA68D2430A401A6000BF1C37BD465DF8BC
:100FD000047B704780B485B000AF78600B467B809F
:100FE0000023FB737B681B889AB27B8813409BB2FB
:100FF000002B02D00123FB7301E00023FB73FB7B7A
:1010000018461437BD465DF8047B704780B487B03E
:1010100000AF78600B467B800023FB6000237B6180
:101020000023BB600023FB747B88DBB25B09DBB26F
:10103000BB607B8803F01F037B6101227B6902FA9E
:1010400003F37B61BB68012B07D17B689B899BB253
:101050001A467B6913407B6111E0BB68022B07D104
:101060007B681B8A9BB21A467B6913407B6106E052
:101070007B689B8A9BB21A467B6913407B617B88A5
:101080001B0A9BB2FB600122FB6802FA03F3FB60C0
:101090007B681B889BB21A46FB681340FB607B6928
:1010A000002B05D0FB68002B02D00123FB7401E06C
:1010B0000023FB74FB7C18461C37BD465DF8047B9F
:1010C000704700BF80B500AF00F014F900F03AF8A7
:1010D00000F006F800F09CF800F01CF800BF80BD9E
:1010E00080B500AF094B4FF6FF725A60074B1522CF
:1010F0001A80064B00221A81044B00225A800349B1
:1011000003481FF04DFA00BF80BD00BF700E0020E5
:101110000004004080B500AF094B4FF6FF725A60E3
:10112000074B15221A80064B00221A81044B00221D
:101130005A8003494FF080401FF032FA00BF80BD53
:10114000700E002080B582B000AF0121022007F0B0
:1011500085FD1D233B7100237B710123BB7101239E
:10116000FB713B1D18461EF065FA274B00221A80C2
:10117000254B01225A80254B5B6B234A9360224BFF
:1011800000229A81204921481FF096FA00211F4829
:101190001FF01AFC1C4B01225A801C4B9B6B1A4AF5
:1011A0009360194919481FF001FB002117481FF0EF
:1011B00027FC154B01225A80144BDB6B124A9360BB
:1011C000114912481FF07AFB002110481FF036FC2D
:1011D000012201210D481FF04DFC012202210B4884
:1011E0001FF048FC0122042108481FF043FC0122A3
:1011F000082106481FF03EFC012104481FF03CFA7C
:1012000000BF0837BD4680BDB40F00200004004079
:1012100080B582B000AF0121012007F01FFD1C2323
:101220003B7101237B710223BB710123FB713B1DC9
:1012300018461EF0FFF92E4B00221A802C4B01227B
:101240005A804FF080435B6B294A9360284B002201
:101250009A8127494FF080401FF02EFA00214FF06D
:1012600080401FF0B1FB224B01225A804FF0804397
:101270009B6B1F4A93601E494FF080401FF096FA07
:1012800000214FF080401FF0BBFB194B01225A8018
:101290004FF08043DB6B164A936015494FF0804056
:1012A0001FF00CFB00214FF080401FF0C7FB012214
:1012B00001214FF080401FF0DDFB012202214FF0A1
:1012C00080401FF0D7FB012204214FF080401FF027
:1012D000D1FB012208214FF080401FF0CBFB012100
:1012E0004FF080401FF0C8F900BF0837BD4680BDF1
:1012F000B40F002080B500AF0121082007F08EFC5C
:10130000224B8B221A60214B01221A711F4B0022A3
:101310009A711E4B03225A711C4B0022DA711B4931
:101320001B481DF01BFD0121022007F077FC174B25
:1013300047F237021A60154B01221A71134B002233
:101340009A71124B03225A71104B0022DA710F4925
:1013500010481DF003FD0121102007F05FFC0B4B2E
:101360004FF47C721A60094B01221A71074B00225C
:101370009A71064B03225A71044B0022DA71034919
:1013800005481DF0EBFC00BF80BD00BF84100020AD
:10139000000C0240000402400010024080B500AF83
:1013A000012170481FF08AFB0346002B6AD06E4B68
:1013B0001B780133DAB26C4B1A706B4B1B78022B23
:1013C00002D9694B00221A70012166481FF0A0FB68
:1013D000654B1B78012B11D0022B1DD0002B28D17F
:1013E000012162481DF062FD202161481DF05EFD73
:1013F0004FF400715E481DF059FD1AE002215B4870
:101400001DF054FD10215A481DF050FD4FF480711D
:1014100057481DF04BFD0CE0082154481DF046FDD7
:10142000402153481DF042FD802151481DF03EFDF2
:1014300000BF4D4B1B78022B03D94E4B00221A6084
:1014400008E0494B1B78022B04D8474B1B781A46FF
:10145000484B1A60434A474B1B68474951F82330B1
:101460005363404A434B1B680633434951F82330CA
:1014700093633C4A3F4B1B680C333F4951F8233080
:10148000D3636CE0022137481FF018FB0346012BA1
:101490001CD1022133481FF03BFB334B1B78012B3F
:1014A00009D0022B0CD0002B00D058E001212F488E
:1014B0001DF00CFD53E002212C481DF007FD4EE00D
:1014C00008212A481DF002FD00BF48E004212548FC
:1014D0001FF0F4FA0346012B1CD1042121481FF010
:1014E00017FB214B1B78012B09D0022B0CD0002BB2
:1014F00000D034E020211E481DF0E8FC2FE0102130
:101500001B481DF0E3FC2AE0402119481DF0DEFCD9
:1015100000BF24E0082113481FF0D0FA0346012B36
:101520001DD108210F481FF0F3FA0F4B1B78012B38
:101530000AD0022B0ED0002B00D010E04FF4007127
:101540000B481DF0C3FC0AE04FF4807108481DF001
:10155000BDFC04E0802106481DF0B8FC00BF00BFC0
:1015600080BD00BF000400401C110020000C0240A0
:1015700000100240C40D00205400002080B500AFD0
:1015800001214FF080401FF099FA0346002B6FD0E5
:10159000724B1B780133DAB2704B1A706F4B1B78A9
:1015A000022B02D96D4B00221A7001214FF08040AE
:1015B0001FF0AEFA694B1B78012B11D0022B1DD006
:1015C000002B29D1802166481DF070FC4FF480412A
:1015D00064481DF06BFC042162481DF067FC1BE0B1
:1015E000202160481DF062FC4FF400515D481DF061
:1015F0005DFC02215B481DF059FC0DE010215948AB
:101600001DF054FC4FF4805156481DF04FFC012151
:1016100054481DF04BFC00BF504B1B78022B03D9E4
:10162000514B03221A6008E04C4B1B78022B04D864
:101630004A4B1B7803334C4A13604FF080424A4BAD
:101640001B684A4951F8233053634FF08042464BA0
:101650001B680633454951F8233093634FF08042AD
:10166000414B1B680C33414951F82330D36373E07D
:1016700002214FF080401FF021FA0346012B1DD1BB
:1016800002214FF080401FF043FA344B1B78012BAE
:1016900009D0022B0CD0002B00D05DE08021304817
:1016A0001DF014FC58E020212E481DF00FFC53E0E3
:1016B00010212C481DF00AFC00BF4DE004214FF022
:1016C00080401FF0FBF90346012B20D104214FF08D
:1016D00080401FF01DFA214B1B78012B0AD0022BF2
:1016E0000ED0002B00D037E04FF480411D481DF094
:1016F000EDFB31E04FF400511A481DF0E7FB2BE001
:101700004FF4805117481DF0E1FB00BF24E0082191
:101710004FF080401FF0D2F90346012B1CD1082165
:101720004FF080401FF0F4F90C4B1B78012B09D0CF
:10173000022B0CD0002B00D00EE0042109481DF034
:10174000C5FB09E0022107481DF0C0FB04E00121B0
:1017500004481DF0BBFB00BF00BF80BD0C1400207F
:10176000000C024000040240C80D0020540000207C
:10177000B0B584B000AFF860B96087ED010AD7ED6D
:10178000017AFDEEE77A17EE902AB94B1A60BB6832
:1017900007EE903AF8EEE77AB64BC3ED007AB64B17
:1017A00000221A6019E1B44B1B68B34A1268B349AE
:1017B00092000A4492ED007AFA6807EE902AF8EE59
:1017C000E77A77EE677AFDEEE77A17EE901AAC4A81
:1017D00042F82310A74B1B68184621F0B1FE0446BF
:1017E0000D46A54B1B68A64A52F82330184621F037
:1017F00095FE9DA3D3E9002322F020F802460B4674
:1018000043EC172BB0EE470AF0EE670A1FF020FFFB
:1018100053EC102B2046294621F0E6FE03460C46E9
:101820001846214622F0A2F90246964B1A60924BC6
:101830001B68954A9B00134493ED007A914BD3EDBE
:10184000007A77EE677A8F4BC3ED007A894B1B687D
:10185000184621F075FE04460D46874B1B68884AE2
:1018600052F82330184621F059FE7FA3D3E9002314
:1018700021F0E4FF02460B4643EC172BB0EE470A7B
:10188000F0EE670A1FF07CFF53EC102B2046294630
:1018900021F0AAFE03460C461846214622F066F9BE
:1018A00002467A4B1A60794BD3ED006A754B93ED83
:1018B000007AC6EE877A734BC3ED007A714B1B68D2
:1018C000184621F03DFE03460C4644EC103B1FF049
:1018D00003FD54EC103B1846214622F047F902461E
:1018E000684B1A60644B1C68664B1B68184621F0F5
:1018F00027FE5DA3D3E9002321F076FE02460B46C6
:101900001046194622F032F90146614AA3001344F9
:101910001960594B1B685A4A52F82330184621F077
:10192000FDFD51A3D3E9002321F088FF03460C46B7
:1019300044EC173BB0EE470AF0EE670A1FF020FFB9
:1019400054EC103B1846214622F010F902464D4B4C
:101950001A60484B93ED007A4A4BD3ED007A67EE5C
:10196000277A484BC3ED007A434B1B68484A9B00DB
:1019700013441B68184621F0E3FD3BA3D3E9002381
:1019800021F05CFF03460C4644EC173BB0EE470ADF
:10199000F0EE670A1FF0F4FE54EC103B18462146A7
:1019A00022F0E4F80246394B1A60364BD3ED006A58
:1019B000364B93ED007AC6EE877A324BC3ED007A50
:1019C0002D4B1B682F4A126832499B000B441A604A
:1019D000294B1B680133284A1360274B1B68052BD2
:1019E0007FF7E1AE2B4BD3ED007AB0EE007A77EEC5
:1019F000877A284BC3ED007A264BD3ED037AB0EEFD
:101A0000007A77EE877A234BC3ED037A214BD3ED2F
:101A1000017AB0EE087A77EEC77A1E4BC3ED017AF1
:101A20001C4BD3ED047AB0EE087A77EEC77A194BE7
:101A3000C3ED047A174BD3ED027AB1EE0C7A77EE50
:101A4000C77A144BC3ED027A124BD3ED057AB1EE8F
:101A50000C7A77EEC77A0F4BC3ED057A00BF1037CB
:101A6000BD46B0BDAFF3008085EB51B81EA54C401C
:101A70003811002040120020E00B0020F87D020801
:101A80005C15002040140020E07D0208781500203D
:101A9000981400208013002090B585B000AF034655
:101AA00087ED020AC7ED010A87ED001AFB73C84AE9
:101AB000BB681360C74A7B681360C64BD3ED007ADE
:101AC000B0EE0C7A77EEC77AC24BC3ED007AC24B08
:101AD000C24A1A60C24BC34A1A60BE4B93ED007AE9
:101AE000BC4BD3ED007A27EE277AD7ED006AD7ED0D
:101AF000007A66EEA77A37EE277AB74BD3ED007AF5
:101B000037EE677AB64BD3ED007AC7EE276A16EE4A
:101B1000900A21F015FD03460C4644EC103B1FF0E3
:101B20008FFE54EC103B1846214622F01FF8024667
:101B3000A74B9A60A64B9B68184621F001FD03460F
:101B40000C4644EC103B1FF083FD51EC100B4FF0A2
:101B50000002A54B21F048FD03460C4618462146DD
:101B60004FF00002A14B21F08DFB03460C461846B6
:101B7000214621F0FBFF02469D4B1A60944B9B6867
:101B8000184621F0DDFC03460C4644EC103B1FF0E8
:101B9000F7FD51EC100B4FF00002934B21F024FDA8
:101BA00003460C461846214621F0E0FF0246914BC1
:101BB0001A608F4B93ED007AD7ED007A27EE277AE3
:101BC000844BD3ED006A8B4BD3ED007A66EEA77A97
:101BD00037EE677A7F4BD3ED006A854BD3ED007A01
:101BE00066EEA76A834B93ED006AD7ED007A66EE46
:101BF000277A76EEA77AC7EE276A16EE900A21F0CA
:101C00009FFC03460C4644EC103B1FF065FB54EC74
:101C1000103B1846214621F0A9FF02466C4B5A6042
:101C20006B4B9B68184621F08BFC67A3D3E900231C
:101C300021F0DAFC03460C461846214621F096FFB7
:101C40000246634B9A60624B5B68184621F078FC51
:101C50005DA3D3E9002321F0C7FC03460C461846D8
:101C6000214621F083FF0246594B5A60FB7B013B22
:101C7000052B00F2A58001A252F823F0951C000864
:101C8000C71C0008F91C00082B1D00085D1D00087A
:101C90008F1D00084E4BD3ED007AB0EE670A00208E
:101CA00000F0AAF84A4BD3ED017AB0EE670A0120A2
:101CB00000F0A2F8464BD3ED027AB0EE670A02209C
:101CC00000F09AF87CE0424BD3ED007AB0EE670A60
:101CD000092000F091F83E4BD3ED017AB0EE670A8F
:101CE0000A2000F089F83A4BD3ED027AB0EE670A89
:101CF0000B2000F081F863E0354BD3ED007AB0EEB5
:101D0000670A032000F078F8314BD3ED017AB0EE8A
:101D1000670A042000F070F82D4BD3ED027AB0EE84
:101D2000670A052000F068F84AE0294BD3ED007AF5
:101D3000B0EE670A0C2000F05FF8254BD3ED017A76
:101D4000B0EE670A0D2000F057F8214BD3ED027A70
:101D5000B0EE670A0E2000F04FF831E01C4BD3EDD7
:101D6000007AB0EE670A062000F046F8184BD3ED73
:101D7000017AB0EE670A072000F03EF8144BD3ED6D
:101D8000027AB0EE670A082000F036F818E0104B2F
:101D9000D3ED007AB0EE670A0F2000F02DF80C4B5F
:101DA000D3ED017AB0EE670A102000F025F8084B59
:101DB000D3ED027AB0EE670A112000F01DF800BFE3
:101DC00000BF1437BD4690BD85EB51B81EA54C40F1
:101DD000B4100020A8120020641300200000B242BA
:101DE000A01100200000A04200002040000014408C
:101DF000081500209811002080B483B000AF7860EF
:101E000087ED000A144A7B689B00134493ED007A27
:101E1000124A7B689B001344D3ED006AD7ED007A29
:101E200076EEA77A27EE277A0D4A7B6852F82330A0
:101E300007EE903AF8EEE77A77EE277AFDEEE77A4A
:101E400017EE901A074A7B6842F8231000BF0C3740
:101E5000BD465DF8047B7047387D02089C00002079
:101E6000807D02085400002080B500AFB2EE020A67
:101E700000210020FFF77CFC32201DF00FFA2F4BD1
:101E80001B6807EE903AF8EEE77AB0EE671AF1EECB
:101E90000C0A9FED2B0A0120FFF7FEFD274B1B6864
:101EA00007EE903AF8EEE77AB0EE671AF1EE0C0A18
:101EB0009FED230A0220FFF7EFFD204B1B6807EE82
:101EC000903AF8EEE77AB0EE671AF1EE0C0A9FED61
:101ED0001C0A0320FFF7E0FD184B1B6807EE903A41
:101EE000F8EEE77AB0EE671AF1EE0C0A9FED140AED
:101EF0000420FFF7D1FD114B1B6807EE903AF8EE76
:101F0000E77AB0EE671AF1EE0C0A9FED0D0A052094
:101F1000FFF7C2FD094B1B6807EE903AF8EEE77A2F
:101F2000B0EE671AF1EE0C0A9FED050A0620FFF7E6
:101F3000B3FD64201DF0B2F900BF80BD3811002050
:101F40000000B44280B584B000AF786039600C49BD
:101F50000C48FEF761FD7B680B4A82FB03125210AE
:101F6000DB17D31ABB60B2EE020A05210020FFF78F
:101F7000FFFB32201DF092F90123FB60FDE300BF5F
:101F8000F87E02080010014067666666C54B1B6854
:101F90001946C548FEF74CFDC44B9A68C44B1B68F4
:101FA0009A4203D1C24B1B68C24A1360BD4B1B68E7
:101FB0001946BD48FEF73CFDBC4B9A68BC4B1B68FC
:101FC0009A4203D1BA4B1B68BA4A1360BA4B1B68DA
:101FD00007EE903AF8EEE77AB0EE671AF1EE0C0AE7
:101FE0009FEDB60A0120FFF757FDB54BD3ED037AFD
:101FF0009FEDB27A77EE877AAF4B1B68033B07EE13
:10200000103AB8EEC77AB0EE471AF2EE040AB0EE14
:10201000670A0220FFF740FDA94BD3ED017A9FED3F
:10202000A77A77EE877AA44B1B68033B07EE103A3A
:10203000B8EEC77AB0EE471AF2EE040AB0EE670ABD
:102040000320FFF729FD9C4B1B6807EE903AF8EE42
:10205000E77AB0EE671AF1EE0C0A9FED980A0420B9
:10206000FFF71AFD944B1B6807EE903AF8EEE77AFB
:10207000B0EE671AF1EE0C0A9FED900A0520FFF70B
:102080000BFD8F4BD3ED057A9FED8C7A77EE877A37
:10209000894B1B68033B07EE103AB8EEC77AB0EEE7
:1020A000471AF2EE040AB0EE670A0620FFF7F4FCC6
:1020B0003B6818461DF0F2F87A4B1B6819467A48BF
:1020C000FEF7B6FC794B9A68794B1B689A4203D1AC
:1020D000774B1B68774A1360724B1B68194672482E
:1020E000FEF7A6FC714B9A68714B1B689A4203D1AC
:1020F0006F4B1B686F4A1360714BD3ED007A9FEDF5
:102100006F7A77EE877A6C4B1B6807EE103AB8EE61
:10211000C77AB0EE471AF1EE0C0AB0EE670A01205A
:10212000FFF7BAFC664BD3ED037A9FED647A77EE46
:10213000677A614B1B68033B07EE103AB8EEC77A2B
:10214000B0EE471AF2EE040AB0EE670A0220FFF77B
:10215000A3FC5B4BD3ED017A9FED587A77EE677A5B
:10216000554B1B68033B07EE103AB8EEC77AB0EE4A
:10217000471AF2EE040AB0EE670A0320FFF78CFC60
:102180004F4BD3ED047A9FED4D7A77EE877A4A4B29
:102190001B6807EE103AB8EEC77AB0EE471AF1EEB8
:1021A0000C0AB0EE670A0420FFF776FC444BD3ED2F
:1021B000027A9FED427A77EE877A3F4B1B6807EEF3
:1021C000103AB8EEC77AB0EE471AF1EE0C0AB0EE4C
:1021D000670A0520FFF760FC394BD3ED057A9FEDC8
:1021E000377A77EE677A344B1B68033B07EE103A79
:1021F000B8EEC77AB0EE471AF2EE040AB0EE670AFC
:102200000620FFF749FC3B6818461DF047F8254BB0
:102210001B6819462448FEF70BFC244B9A68244B94
:102220001B689A4203D1224B1B68224A13601D4B44
:102230001B6819461C48FEF7FBFB1C4B9A681C4B9D
:102240001B689A4203D11A4B1B681A4A13601C4B35
:10225000D3ED007A9FED197A77EE877A164B1B68DB
:1022600007EE103AB8EEC77AB0EE471AF1EE0C0A54
:10227000B0EE670A0120FFF70FFC114BD3ED037A94
:102280009FED0E7A77EE677A0B4B1B6807EE103ADC
:10229000B8EEC77AB0EE471AF1EE0C0AB0EE670A54
:1022A00002200FE0EC01002000500040140D00203F
:1022B0004C020020600D0020381100200000B442C4
:1022C00098140020FFF7E8FBCD4BD3ED017A9FED8A
:1022D000CD7A77EE677ACC4B1B6807EE103AB8EEF2
:1022E000C77AB0EE471AF1EE0C0AB0EE670A032087
:1022F000FFF7D2FBC24BD3ED047A9FEDC27A77EEA3
:10230000877AC14B1B6807EE103AB8EEC77AB0EE79
:10231000471AF1EE0C0AB0EE670A0420FFF7BCFB87
:10232000B74BD3ED027A9FEDB77A77EE877AB64B4B
:102330001B6807EE103AB8EEC77AB0EE471AF1EE16
:102340000C0AB0EE670A0520FFF7A6FBAC4BD3EDF5
:10235000057A9FEDAC7A77EE677AAB4B1B6807EE98
:10236000103AB8EEC77AB0EE471AF1EE0C0AB0EEAA
:10237000670A0620FFF790FB3B6818461CF08EFFAB
:10238000A24B1B681946A248FEF752FBA14B9A6864
:10239000A14B1B689A4203D19F4B1B689F4A136055
:1023A0009A4B1B6819469A48FEF742FB994B9A686C
:1023B000994B1B689A4203D1974B1B68974A13604D
:1023C0008F4BD3ED007A9FED8F7A77EE877A8E4B25
:1023D0001B68033B07EE103AB8EEC77AB0EE471A17
:1023E000F2EE040AB0EE670A0120FFF755FB864BB8
:1023F0001B6807EE903AF8EEE77AB0EE671AF1EE56
:102400000C0A9FED800A0220FFF746FB7E4B1B68FB
:1024100007EE903AF8EEE77AB0EE671AF1EE0C0AA2
:102420009FED780A0320FFF737FB754BD3ED047A55
:102430009FED747A77EE877A734B1B68033B07EE48
:10244000103AB8EEC77AB0EE471AF2EE040AB0EED0
:10245000670A0420FFF720FB694BD3ED027A9FED5A
:10246000697A77EE877A684B1B68033B07EE103A70
:10247000B8EEC77AB0EE471AF2EE040AB0EE670A79
:102480000520FFF709FB604B1B6807EE903AF8EE5A
:10249000E77AB0EE671AF1EE0C0A9FED5A0A0620B1
:1024A000FFF7FAFA3B6818461CF0F8FE574B1B681A
:1024B00019465748FEF7BCFA564B9A68564B1B68AC
:1024C0009A4203D1544B1B68544A13604F4B1B680C
:1024D00019464F48FEF7ACFA4E4B9A684E4B1B68B4
:1024E0009A4203D14C4B1B684C4A1360444BD3EDCA
:1024F000007A9FED447A77EE677A434B1B68033B83
:1025000007EE103AB8EEC77AB0EE471AF2EE040AB8
:10251000B0EE670A0120FFF7BFFA394BD3ED037A1B
:102520009FED387A77EE877A374B1B6807EE103AC3
:10253000B8EEC77AB0EE471AF1EE0C0AB0EE670AB1
:102540000220FFF7A9FA2E4BD3ED017A9FED2D7AE9
:1025500077EE877A2C4B1B6807EE103AB8EEC77AF5
:10256000B0EE471AF1EE0C0AB0EE670A0320FFF74F
:1025700093FA234BD3ED047A9FED227A77EE677AB4
:10258000214B1B68033B07EE103AB8EEC77AB0EE5A
:10259000471AF2EE040AB0EE670A0420FFF77CFA4D
:1025A000174BD3ED027A9FED177A77EE677A164BC9
:1025B0001B68033B07EE103AB8EEC77AB0EE471A35
:1025C000F2EE040AB0EE670A0520FFF765FA0C4B3D
:1025D000D3ED057A9FED0B7A77EE877A0A4B1B686D
:1025E00007EE103AB8EEC77AB0EE471AF1EE0C0AD1
:1025F000B0EE670A0620FFF74FFA3B6818460FE077
:10260000981400200000B44238110020EC01002092
:1026100000500040140D00204C020020600D0020EE
:102620001CF03CFE594B1B6819465948FEF700FA4E
:10263000584B9A68584B1B689A4203D1564B1B68FB
:10264000564A1360514B1B6819465148FEF7F0F982
:10265000504B9A68504B1B689A4203D14E4B1B68F3
:102660004E4A13604E4BD3ED007A9FED4E7A77EED3
:10267000677A4D4B1B6807EE103AB8EEC77AB0EE9A
:10268000471AF1EE0C0AB0EE670A0120FFF704FAD0
:10269000434BD3ED037A9FED437A77EE877A424B33
:1026A0001B6807EE103AB8EEC77AB0EE471AF1EEA3
:1026B0000C0AB0EE670A0220FFF7EEF9384BD3EDB3
:1026C000017A9FED387A77EE877A374B1B6807EEF1
:1026D000103AB8EEC77AB0EE471AF1EE0C0AB0EE37
:1026E000670A0320FFF7D8F92D4BD3ED047A9FED4D
:1026F0002D7A77EE677A2C4B1B6807EE103AB8EE0E
:10270000C77AB0EE471AF1EE0C0AB0EE670A042061
:10271000FFF7C2F9224BD3ED027A9FED227A77EED2
:10272000677A214B1B6807EE103AB8EEC77AB0EE15
:10273000471AF1EE0C0AB0EE670A0520FFF7ACF974
:10274000174BD3ED057A9FED177A77EE877A164B04
:102750001B6807EE103AB8EEC77AB0EE471AF1EEF2
:102760000C0AB0EE670A0620FFF796F93B68184698
:102770001CF094FDFB680133FB60FA68BB689A4269
:102780007FF704AC00BF1037BD4680BDEC010020D0
:1027900000500040140D00204C020020600D00206D
:1027A000981400200000B4423811002080B584B095
:1027B00000AF786039600B490B48FEF72DF97B6854
:1027C0000A4A82FB0312DB17D31ABB60B2EE020A7D
:1027D00003210020FEF7CCFF32201CF05FFD012317
:1027E000FB6022E3147F0208001001405655555546
:1027F000DF4B1B6807EE903AF8EEE77AB0EE671A07
:10280000F1EE0C0A9FEDDB0A0120FFF745F9DA4BE8
:10281000D3ED037A9FEDD77A77EE877AD44B1B6896
:10282000033B07EE103AB8EEC77AB0EE471AF2EE65
:10283000040AB0EE670A0220FFF72EF9CE4BD3ED63
:10284000017A9FEDCC7A77EE877AC94B1B68033B00
:1028500007EE103AB8EEC77AB0EE471AF2EE040A65
:10286000B0EE670A0320FFF717F9C14B1B6807EEAC
:10287000903AF8EEE77AB0EE671AF1EE0C0A9FEDA7
:10288000BD0A0420FFF708F9B94B1B6807EE903A20
:10289000F8EEE77AB0EE671AF1EE0C0A9FEDB50A92
:1028A0000520FFF7F9F8B44BD3ED057A9FEDB17A27
:1028B00077EE877AAE4B1B68033B07EE103AB8EE13
:1028C000C77AB0EE471AF2EE040AB0EE670A0620A5
:1028D000FFF7E2F83B6818461CF0E0FCA64BD3ED8E
:1028E000007A9FEDA47A77EE877AA14B1B6807EEFA
:1028F000103AB8EEC77AB0EE471AF1EE0C0AB0EE15
:10290000670A0120FFF7C8F89B4BD3ED037A9FEDD0
:10291000997A77EE677A964B1B68033B07EE103A7D
:10292000B8EEC77AB0EE471AF2EE040AB0EE670AC4
:102930000220FFF7B1F8904BD3ED017A9FED8D7A2D
:1029400077EE677A8A4B1B68033B07EE103AB8EEC6
:10295000C77AB0EE471AF2EE040AB0EE670A032017
:10296000FFF79AF8844BD3ED047A9FED827A77EEE5
:10297000877A7F4B1B6807EE103AB8EEC77AB0EE45
:10298000471AF1EE0C0AB0EE670A0420FFF784F84C
:10299000794BD3ED027A9FED777A77EE877A744B95
:1029A0001B6807EE103AB8EEC77AB0EE471AF1EEA0
:1029B0000C0AB0EE670A0520FFF76EF86E4BD3EDF8
:1029C000057A9FED6C7A77EE677A694B1B68033B5B
:1029D00007EE103AB8EEC77AB0EE471AF2EE040AE4
:1029E000B0EE670A0620FFF757F83B6818461CF060
:1029F00055FC614BD3ED007A9FED5E7A77EE877AD6
:102A00005B4B1B6807EE103AB8EEC77AB0EE471A78
:102A1000F1EE0C0AB0EE670A0120FFF73DF8564BC5
:102A2000D3ED037A9FED537A77EE677A504B1B68AC
:102A300007EE103AB8EEC77AB0EE471AF1EE0C0A7C
:102A4000B0EE670A0220FFF727F84B4BD3ED017A6F
:102A50009FED487A77EE677A454B1B6807EE103A90
:102A6000B8EEC77AB0EE471AF1EE0C0AB0EE670A7C
:102A70000320FFF711F8404BD3ED047A9FED3D7A28
:102A800077EE877A3A4B1B6807EE103AB8EEC77AB2
:102A9000B0EE471AF1EE0C0AB0EE670A0420FEF71A
:102AA000FBFF354BD3ED027A9FED327A77EE877AD2
:102AB0002F4B1B6807EE103AB8EEC77AB0EE471AF4
:102AC000F1EE0C0AB0EE670A0520FEF7E5FF2A4B8F
:102AD000D3ED057A9FED277A77EE677A244B1B6852
:102AE00007EE103AB8EEC77AB0EE471AF1EE0C0ACC
:102AF000B0EE670A0620FEF7CFFF3B6818461CF0D1
:102B0000CDFB1D4BD3ED007A9FED1A7A77EE877AD5
:102B1000174B1B68033B07EE103AB8EEC77AB0EECE
:102B2000471AF2EE040AB0EE670A0120FEF7B4FF7E
:102B30000F4B1B6807EE903AF8EEE77AB0EE671A93
:102B4000F1EE0C0A9FED0B0A0220FEF7A5FF084BE1
:102B50001B6807EE903AF8EEE77AB0EE671AF1EEEE
:102B60000C0A9FED040A0320FEF796FF06E000BF63
:102B7000381100200000B44298140020AF4BD3ED70
:102B8000047A9FEDAF7A77EE877AAE4B1B68033BF2
:102B900007EE103AB8EEC77AB0EE471AF2EE040A22
:102BA000B0EE670A0420FEF777FFA44BD3ED027A5C
:102BB0009FEDA37A77EE877AA24B1B68033B07EE63
:102BC000103AB8EEC77AB0EE471AF2EE040AB0EE49
:102BD000670A0520FEF760FF9A4B1B6807EE903AE4
:102BE000F8EEE77AB0EE671AF1EE0C0A9FED940A60
:102BF0000620FEF751FF3B6818461CF04FFB8F4B39
:102C0000D3ED007A9FED8E7A77EE677A8D4B1B6855
:102C1000033B07EE103AB8EEC77AB0EE471AF2EE71
:102C2000040AB0EE670A0120FEF736FF834BD3EDAE
:102C3000037A9FED837A77EE877A824B1B6807EEE3
:102C4000103AB8EEC77AB0EE471AF1EE0C0AB0EEC1
:102C5000670A0220FEF720FF784BD3ED017A9FED43
:102C6000787A77EE877A774B1B6807EE103AB8EEE2
:102C7000C77AB0EE471AF1EE0C0AB0EE670A0320ED
:102C8000FEF70AFF6D4BD3ED047A9FED6D7A77EE78
:102C9000677A6C4B1B68033B07EE103AB8EEC77AB5
:102CA000B0EE471AF2EE040AB0EE670A0420FEF70F
:102CB000F3FE624BD3ED027A9FED617A77EE677A8D
:102CC000604B1B68033B07EE103AB8EEC77AB0EED4
:102CD000471AF2EE040AB0EE670A0520FEF7DCFEA2
:102CE000564BD3ED057A9FED567A77EE877A554BA2
:102CF0001B6807EE103AB8EEC77AB0EE471AF1EE4D
:102D00000C0AB0EE670A0620FEF7C6FE3B681846BE
:102D10001CF0C4FA494BD3ED007A9FED497A77EE67
:102D2000677A484B1B6807EE103AB8EEC77AB0EEE8
:102D3000471AF1EE0C0AB0EE670A0120FEF7ACFE6E
:102D40003E4BD3ED037A9FED3E7A77EE877A3D4B8B
:102D50001B6807EE103AB8EEC77AB0EE471AF1EEEC
:102D60000C0AB0EE670A0220FEF796FE334BD3ED55
:102D7000017A9FED337A77EE877A324B1B6807EE44
:102D8000103AB8EEC77AB0EE471AF1EE0C0AB0EE80
:102D9000670A0320FEF780FE284BD3ED047A9FEDEF
:102DA000287A77EE677A274B1B6807EE103AB8EE61
:102DB000C77AB0EE471AF1EE0C0AB0EE670A0420AB
:102DC000FEF76AFE1D4BD3ED027A9FED1D7A77EE7A
:102DD000677A1C4B1B6807EE103AB8EEC77AB0EE64
:102DE000471AF1EE0C0AB0EE670A0520FEF754FE12
:102DF000124BD3ED057A9FED127A77EE877A114B5D
:102E00001B6807EE103AB8EEC77AB0EE471AF1EE3B
:102E10000C0AB0EE670A0620FEF73EFE3B68184635
:102E20001CF03CFAFB680133FB60FA68BB689A420D
:102E30007FF7DEAC00BF1037BD4680BD9814002080
:102E40000000B4423811002080B584B000AF786033
:102E500039600A490A48FDF7DFFD7B68DA0F134441
:102E60005B10BB60B2EE020A02210020FEF780FC7C
:102E700032201CF013FA0123FB6020E3307F0208AC
:102E800000100140DF4B1B6807EE903AF8EEE77A3E
:102E9000B0EE671AF1EE0C0A9FEDDB0A0120FEF797
:102EA000FBFDDA4BD3ED037A9FEDD77A77EE877A85
:102EB000D44B1B68033B07EE103AB8EEC77AB0EE6E
:102EC000471AF2EE040AB0EE670A0220FEF7E4FDAC
:102ED000CE4BD3ED017A9FEDCC7A77EE877AC94B52
:102EE0001B68033B07EE103AB8EEC77AB0EE471AFC
:102EF000F2EE040AB0EE670A0320FEF7CDFDC14BE7
:102F00001B6807EE903AF8EEE77AB0EE671AF1EE3A
:102F10000C0A9FEDBD0A0420FEF7BEFDB94B1B68ED
:102F200007EE903AF8EEE77AB0EE671AF1EE0C0A87
:102F30009FEDB50A0520FEF7AFFDB44BD3ED057A42
:102F40009FEDB17A77EE877AAE4B1B68033B07EEB5
:102F5000103AB8EEC77AB0EE471AF2EE040AB0EEB5
:102F6000670A0620FEF798FD3B6818461CF096F9A4
:102F7000A64BD3ED007A9FEDA47A77EE877AA14B2A
:102F80001B6807EE103AB8EEC77AB0EE471AF1EEBA
:102F90000C0AB0EE670A0120FEF77EFD9B4BD3EDD5
:102FA000037A9FED997A77EE677A964B1B68033B1D
:102FB00007EE103AB8EEC77AB0EE471AF2EE040AFE
:102FC000B0EE670A0220FEF767FD904BD3ED017A61
:102FD0009FED8D7A77EE677A8A4B1B68033B07EE8D
:102FE000103AB8EEC77AB0EE471AF2EE040AB0EE25
:102FF000670A0320FEF750FD844BD3ED047A9FED62
:10300000827A77EE877A7F4B1B6807EE103AB8EE2C
:10301000C77AB0EE471AF1EE0C0AB0EE670A042048
:10302000FEF73AFD794BD3ED027A9FED777A77EE92
:10303000877A744B1B6807EE103AB8EEC77AB0EE89
:10304000471AF1EE0C0AB0EE670A0520FEF724FDE0
:103050006E4BD3ED057A9FED6C7A77EE677A694B0C
:103060001B68033B07EE103AB8EEC77AB0EE471A7A
:10307000F2EE040AB0EE670A0620FEF70DFD3B688B
:1030800018461CF00BF9614BD3ED007A9FED5E7A88
:1030900077EE877A5B4B1B6807EE103AB8EEC77A7B
:1030A000B0EE471AF1EE0C0AB0EE670A0120FEF707
:1030B000F3FC564BD3ED037A9FED537A77EE677AA4
:1030C000504B1B6807EE103AB8EEC77AB0EE471ABD
:1030D000F1EE0C0AB0EE670A0220FEF7DDFC4B4B66
:1030E000D3ED017A9FED487A77EE677A454B1B68FE
:1030F00007EE103AB8EEC77AB0EE471AF1EE0C0AB6
:10310000B0EE670A0320FEF7C7FC404BD3ED047A0C
:103110009FED3D7A77EE877A3A4B1B6807EE103ABF
:10312000B8EEC77AB0EE471AF1EE0C0AB0EE670AB5
:103130000420FEF7B1FC354BD3ED027A9FED327AD5
:1031400077EE877A2F4B1B6807EE103AB8EEC77AF6
:10315000B0EE471AF1EE0C0AB0EE670A0520FEF752
:103160009BFC2A4BD3ED057A9FED277A77EE677AA1
:10317000244B1B6807EE103AB8EEC77AB0EE471A38
:10318000F1EE0C0AB0EE670A0620FEF785FC3B68FC
:1031900018461CF083F81D4BD3ED007A9FED1A7A88
:1031A00077EE877A174B1B68033B07EE103AB8EEB1
:1031B000C77AB0EE471AF2EE040AB0EE670A0120B1
:1031C000FEF76AFC0F4B1B6807EE903AF8EEE77AC1
:1031D000B0EE671AF1EE0C0A9FED0B0A0220FEF723
:1031E0005BFC084B1B6807EE903AF8EEE77AB0EE0E
:1031F000671AF1EE0C0A9FED040A0320FEF74CFC5F
:1032000006E000BF381100200000B44298140020EE
:10321000AF4BD3ED047A9FEDAF7A77EE877AAE4B62
:103220001B68033B07EE103AB8EEC77AB0EE471AB8
:10323000F2EE040AB0EE670A0420FEF72DFCA44B60
:10324000D3ED027A9FEDA37A77EE877AA24B1B68C3
:10325000033B07EE103AB8EEC77AB0EE471AF2EE2B
:10326000040AB0EE670A0520FEF716FC9A4B1B68AD
:1032700007EE903AF8EEE77AB0EE671AF1EE0C0A34
:103280009FED940A0620FEF707FC3B6818461CF0E9
:1032900005F88F4BD3ED007A9FED8E7A77EE677A43
:1032A0008D4B1B68033B07EE103AB8EEC77AB0EEC1
:1032B000471AF2EE040AB0EE670A0120FEF7ECFBB3
:1032C000834BD3ED037A9FED837A77EE877A824B37
:1032D0001B6807EE103AB8EEC77AB0EE471AF1EE67
:1032E0000C0AB0EE670A0220FEF7D6FB784BD3ED4E
:1032F000017A9FED787A77EE877A774B1B6807EE35
:10330000103AB8EEC77AB0EE471AF1EE0C0AB0EEFA
:10331000670A0320FEF7C0FB6D4BD3ED047A9FEDE7
:103320006D7A77EE677A6C4B1B68033B07EE103AB9
:10333000B8EEC77AB0EE471AF2EE040AB0EE670AAA
:103340000420FEF7A9FB624BD3ED027A9FED617A70
:1033500077EE677A604B1B68033B07EE103AB8EED6
:10336000C77AB0EE471AF2EE040AB0EE670A0520FB
:10337000FEF792FB564BD3ED057A9FED567A77EE2A
:10338000877A554B1B6807EE103AB8EEC77AB0EE55
:10339000471AF1EE0C0AB0EE670A0620FEF77CFB36
:1033A0003B6818461BF07AFF494BD3ED007A9FED3E
:1033B000497A77EE677A484B1B6807EE103AB8EE09
:1033C000C77AB0EE471AF1EE0C0AB0EE670A012098
:1033D000FEF762FB3E4BD3ED037A9FED3E7A77EE2C
:1033E000877A3D4B1B6807EE103AB8EEC77AB0EE0D
:1033F000471AF1EE0C0AB0EE670A0220FEF74CFB0A
:10340000334BD3ED017A9FED337A77EE877A324BE7
:103410001B6807EE103AB8EEC77AB0EE471AF1EE25
:103420000C0AB0EE670A0320FEF736FB284BD3EDFB
:10343000047A9FED287A77EE677A274B1B6807EEB0
:10344000103AB8EEC77AB0EE471AF1EE0C0AB0EEB9
:10345000670A0420FEF720FB1D4BD3ED027A9FED97
:103460001D7A77EE677A1C4B1B6807EE103AB8EEB0
:10347000C77AB0EE471AF1EE0C0AB0EE670A0520E3
:10348000FEF70AFB124BD3ED057A9FED127A77EE29
:10349000877A114B1B6807EE103AB8EEC77AB0EE88
:1034A000471AF1EE0C0AB0EE670A0620FEF7F4FAAE
:1034B0003B6818461BF0F2FEFB680133FB60FA68BC
:1034C000BB689A427FF7DEAC00BF1037BD4680BDB7
:1034D000981400200000B4423811002080B584B058
:1034E00000AF786039600C490C48FDF795FA7B68AD
:1034F0000B4A82FB03125210DB17D31ABB60B2EEE9
:10350000020A6FF004010020FEF732F932201BF0AE
:10351000C5FE0123FB6046E34C7F0208001001401A
:1035200067666666E04B1B6807EE903AF8EEE77A4E
:10353000B0EE671AF1EE0C0A9FEDDD0A0120FEF7EE
:10354000ABFADA4BD3ED037A9FEDD97A77EE877A2F
:10355000D54B1B68033B07EE103AB8EEC77AB0EEC6
:10356000471AF2EE040AB0EE670A0220FEF794FA58
:10357000CE4BD3ED047A9FEDCE7A77EE877AB2EE1A
:103580000A7A77EE877AC84B1B68033B07EE103A3E
:10359000B8EEC77AB0EE471AF2EE040AB0EE670A48
:1035A0000320FEF779FAC04B1B6807EE903AF8EE5D
:1035B000E77AB0EE671AF1EE0C0A9FEDBD0A04201F
:1035C000FEF76AFAB84B1B6807EE903AF8EEE77A16
:1035D000B0EE671AF1EE0C0A9FEDB50A0520FEF772
:1035E0005BFAB24BD3ED057A9FEDB17A77EE877A2D
:1035F000AD4B1B68033B07EE103AB8EEC77AB0EE4E
:10360000471AF2EE040AB0EE670A0620FEF744FA03
:103610003B6818461BF042FEA44BD3ED007A9FEDA9
:10362000A47A77EE877AB2EE0A7A77EE877A9E4BA3
:103630001B6807EE103AB8EEC77AB0EE471AF1EE03
:103640000C0AB0EE670A0120FEF726FA974BD3ED7D
:10365000037A9FED977A77EE677A934B1B68033B6B
:1036600007EE103AB8EEC77AB0EE471AF2EE040A47
:10367000B0EE670A0220FEF70FFA8C4BD3ED017A09
:103680009FED8B7A77EE677A874B1B68033B07EEDB
:10369000103AB8EEC77AB0EE471AF2EE040AB0EE6E
:1036A000670A0320FEF7F8F9804BD3ED047A9FED0B
:1036B000807A77EE877A7C4B1B6807EE103AB8EE7B
:1036C000C77AB0EE471AF1EE0C0AB0EE670A042092
:1036D000FEF7E2F9754BD3ED027A9FED757A77EE3E
:1036E000877AB2EE0A7A77EE877A6F4B1B6807EE1D
:1036F000103AB8EEC77AB0EE471AF1EE0C0AB0EE07
:10370000670A0520FEF7C8F9684BD3ED057A9FEDEF
:10371000687A77EE677A644B1B68033B07EE103AD2
:10372000B8EEC77AB0EE471AF2EE040AB0EE670AB6
:103730000620FEF7B1F93B6818461BF0AFFD5B4B66
:10374000D3ED007A9FED5A7A77EE877AB2EE047A5B
:1037500077EE877A544B1B6807EE103AB8EEC77ABB
:10376000B0EE471AF1EE0C0AB0EE670A0120FEF740
:1037700093F94E4BD3ED037A9FED4D7A77EE677A4E
:10378000494B1B6807EE103AB8EEC77AB0EE471AFD
:10379000F1EE0C0AB0EE670A0220FEF77DF9434B0A
:1037A000D3ED017A9FED427A77EE677A3E4B1B6844
:1037B00007EE103AB8EEC77AB0EE471AF1EE0C0AEF
:1037C000B0EE670A0320FEF767F9384BD3ED047AB1
:1037D0009FED377A77EE877A334B1B6807EE103A06
:1037E000B8EEC77AB0EE471AF1EE0C0AB0EE670AEF
:1037F0000420FEF751F92D4BD3ED027A9FED2C7A80
:1038000077EE877AB2EE0A7A77EE877A264B1B68D4
:1038100007EE103AB8EEC77AB0EE471AF1EE0C0A8E
:10382000B0EE670A0520FEF737F9204BD3ED057A95
:103830009FED1F7A77EE677A1B4B1B6807EE103AF5
:10384000B8EEC77AB0EE471AF1EE0C0AB0EE670A8E
:103850000620FEF721F93B6818461BF01FFD134BAD
:10386000D3ED007A9FED127A77EE877AB2EE0A7A7C
:1038700077EE877A0C4B1B68033B07EE103AB8EEE5
:10388000C77AB0EE471AF2EE040AB0EE670A0120DA
:10389000FEF702F9044B1B6807EE903AF8EEE77A60
:1038A000B0EE671A06E000BF38110020981400201F
:1038B0000000B442F1EE0C0A1FED030A0220FEF7ED
:1038C000EBF8BD4B1B6807EE903AF8EEE77AB0EEE6
:1038D000671AF1EE0C0A9FEDB90A0320FEF7DCF837
:1038E000B74BD3ED047A9FEDB57A77EE877AB24B7A
:1038F0001B68033B07EE103AB8EEC77AB0EE471AE2
:10390000F2EE050AB0EE670A0420FEF7C5F8AC4BEC
:10391000D3ED027A9FEDA97A77EE877AB2EE0A7A32
:1039200077EE877AA44B1B68033B07EE103AB8EE9C
:10393000C77AB0EE471AF2EE040AB0EE670A052025
:10394000FEF7AAF89C4B1B6807EE903AF8EEE77A70
:10395000B0EE671AF1EE0C0A9FED980A0620FEF70A
:103960009BF83B6818461BF099FC954BD3ED007A09
:103970009FED927A77EE677A8F4B1B68033B07EED9
:10398000103AB8EEC77AB0EE471AF2EE040AB0EE7B
:10399000670A0120FEF780F8894BD3ED037A9FED8B
:1039A000877A77EE877A844B1B6807EE103AB8EE79
:1039B000C77AB0EE471AF1EE0C0AB0EE670A0220A1
:1039C000FEF76AF87E4BD3ED017A9FED7C7A77EEB5
:1039D000877AB2EE0A7A77EE877A774B1B6807EE22
:1039E000103AB8EEC77AB0EE471AF1EE0C0AB0EE14
:1039F000670A0320FEF750F8714BD3ED047A9FED70
:103A00006F7A77EE677A6C4B1B68033B07EE103AD0
:103A1000B8EEC77AB0EE471AF2EE050AB0EE670AC2
:103A20000420FEF739F8664BD3ED027A9FED637AF6
:103A300077EE677A604B1B68033B07EE103AB8EEEF
:103A4000C77AB0EE471AF2EE040AB0EE670A052014
:103A5000FEF722F85A4BD3ED057A9FED587A77EEB0
:103A6000877A554B1B6807EE103AB8EEC77AB0EE6E
:103A7000471AF1EE0C0AB0EE670A0620FEF70CF8C2
:103A80003B6818461BF00AFC4D4BD3ED007A9FEDC6
:103A90004B7A77EE677A484B1B6807EE103AB8EE20
:103AA000C77AB0EE471AF1EE0C0AB0EE670A0120B1
:103AB000FDF7F2FF424BD3ED037A9FED407A77EEAC
:103AC000877A3D4B1B6807EE103AB8EEC77AB0EE26
:103AD000471AF1EE0C0AB0EE670A0220FDF7DCFF90
:103AE000374BD3ED017A9FED357A77EE877AB2EED8
:103AF0000A7A77EE877A304B1B6807EE103AB8EEF9
:103B0000C77AB0EE471AF1EE0C0AB0EE670A03204E
:103B1000FDF7C2FF2A4BD3ED047A9FED287A77EEAA
:103B2000677A254B1B6807EE103AB8EEC77AB0EEFD
:103B3000471AF1EE0C0AB0EE670A0420FDF7ACFF5D
:103B40001F4BD3ED027A9FED1D7A77EE677A1A4B01
:103B50001B6807EE103AB8EEC77AB0EE471AF1EEDE
:103B60000C0AB0EE670A0520FDF796FF144BD3ED63
:103B7000057A9FED127A77EE877A0F4B1B6807EE76
:103B8000103AB8EEC77AB0EE471AF1EE0C0AB0EE72
:103B9000670A0620FDF780FF3B6818461BF07EFB96
:103BA000FB680133FB60FA68BB689A427FF7BAACE6
:103BB00000BF1037BD4680BD381100200000B44260
:103BC0009814002080B584B000AF786039600C494B
:103BD0000C48FCF721FF7B680B4A82FB0312521052
:103BE000DB17D31ABB60B2EE020A6FF004010020AB
:103BF000FDF7BEFD32201BF051FB0123FB6021E3EA
:103C00004C7F02080010014067666666DE4BD3ED0C
:103C1000057A9FEDDE7A77EE877ADD4B1B68033BF2
:103C200007EE103AB8EEC77AB0EE471AF2EE040A81
:103C3000B0EE670A0120FDF72FFFD54B1B6807EE9A
:103C4000903AF8EEE77AB0EE671AF1EE0C0A9FEDC3
:103C5000CF0A0220FDF720FFCD4B1B6807EE903AFC
:103C6000F8EEE77AB0EE671AF1EE0C0A9FEDC70A9C
:103C70000320FDF711FFC44BD3ED017A9FEDC37A0A
:103C800077EE877AC24B1B68033B07EE103AB8EE1B
:103C9000C77AB0EE471AF2EE040AB0EE670A0420C3
:103CA000FDF7FAFEB84BD3ED037A9FEDB87A77EEC5
:103CB000877AB74B1B68033B07EE103AB8EEC77A1A
:103CC000B0EE471AF2EE040AB0EE670A0520FDF7DF
:103CD000E3FEAF4B1B6807EE903AF8EEE77AB0EEE2
:103CE000671AF1EE0C0A9FEDA90A0620FDF7D4FE33
:103CF0003B6818461BF0D2FAA34BD3ED057A9FED33
:103D0000A37A77EE677AA24B1B68033B07EE103A63
:103D1000B8EEC77AB0EE471AF2EE040AB0EE670AC0
:103D20000120FDF7B9FE984BD3ED027A9FED977A0B
:103D300077EE877A964B1B6807EE103AB8EEC77A93
:103D4000B0EE471AF1EE0C0AB0EE670A0220FDF75A
:103D5000A3FE8D4BD3ED047A9FED8C7A77EE877AB4
:103D60008B4B1B6807EE103AB8EEC77AB0EE471AD5
:103D7000F1EE0C0AB0EE670A0320FDF78DFE824BD0
:103D8000D3ED017A9FED817A77EE677A804B1B68DD
:103D9000033B07EE103AB8EEC77AB0EE471AF2EEE0
:103DA000040AB0EE670A0420FDF776FE764BD3EDE9
:103DB000037A9FED767A77EE677A754B1B68033B43
:103DC00007EE103AB8EEC77AB0EE471AF2EE040AE0
:103DD000B0EE670A0520FDF75FFE6B4BD3ED007A6E
:103DE0009FED6A7A77EE877A694B1B6807EE103A87
:103DF000B8EEC77AB0EE471AF1EE0C0AB0EE670AD9
:103E00000620FDF749FE3B6818461BF047FA5E4B5B
:103E1000D3ED057A9FED5D7A77EE677A5C4B1B6890
:103E200007EE103AB8EEC77AB0EE471AF1EE0C0A78
:103E3000B0EE670A0120FDF72FFE534BD3ED027A57
:103E40009FED527A77EE877A514B1B6807EE103A56
:103E5000B8EEC77AB0EE471AF1EE0C0AB0EE670A78
:103E60000220FDF719FE484BD3ED047A9FED477A07
:103E700077EE877A464B1B6807EE103AB8EEC77AA2
:103E8000B0EE471AF1EE0C0AB0EE670A0320FDF718
:103E900003FE3D4BD3ED017A9FED3C7A77EE677AD6
:103EA0003B4B1B6807EE103AB8EEC77AB0EE471AE4
:103EB000F1EE0C0AB0EE670A0420FDF7EDFD324B7F
:103EC000D3ED037A9FED317A77EE677A304B1B683A
:103ED00007EE103AB8EEC77AB0EE471AF1EE0C0AC8
:103EE000B0EE670A0520FDF7D7FD274BD3ED007A2A
:103EF0009FED267A77EE877A254B1B6807EE103AFE
:103F0000B8EEC77AB0EE471AF1EE0C0AB0EE670AC7
:103F10000620FDF7C1FD3B6818461BF0BFF91C4B9E
:103F20001B6807EE903AF8EEE77AB0EE671AF1EE0A
:103F30000C0A9FED160A0120FDF7AEFD124BD3EDE2
:103F4000027A9FED127A77EE877A114B1B68033B5A
:103F500007EE103AB8EEC77AB0EE471AF2EE040A4E
:103F6000B0EE670A0220FDF797FD074BD3ED047A08
:103F70009FED067A77EE877A054B1B68033B07EEC9
:103F8000103AB8EEC77A05E0981400200000B44259
:103F900038110020B0EE471AF2EE040AB0EE670ABC
:103FA0000320FDF779FDAC4B1B6807EE903AF8EE65
:103FB000E77AB0EE671AF1EE0C0A9FEDA80A04202A
:103FC000FDF76AFDA44B1B6807EE903AF8EEE77A1E
:103FD000B0EE671AF1EE0C0A9FEDA00A0520FDF77E
:103FE0005BFD9F4BD3ED007A9FED9C7A77EE877A4D
:103FF000994B1B68033B07EE103AB8EEC77AB0EE58
:10400000471AF2EE040AB0EE670A0620FDF744FDF7
:104010003B6818461BF042F9914BD3ED057A9FEDB2
:104020008F7A77EE877A8C4B1B6807EE103AB8EEE2
:10403000C77AB0EE471AF1EE0C0AB0EE670A01201B
:10404000FDF72AFD864BD3ED027A9FED847A77EE59
:10405000677A814B1B68033B07EE103AB8EEC77ACC
:10406000B0EE471AF2EE040AB0EE670A0220FDF73E
:1040700013FD7B4BD3ED047A9FED787A77EE677A68
:10408000754B1B68033B07EE103AB8EEC77AB0EEEB
:10409000471AF2EE040AB0EE670A0320FDF7FCFCB3
:1040A0006F4BD3ED017A9FED6D7A77EE877A6A4B8D
:1040B0001B6807EE103AB8EEC77AB0EE471AF1EE79
:1040C0000C0AB0EE670A0420FDF7E6FC644BD3ED62
:1040D000037A9FED627A77EE877A5F4B1B6807EE73
:1040E000103AB8EEC77AB0EE471AF1EE0C0AB0EE0D
:1040F000670A0520FDF7D0FC594BD3ED007A9FED00
:10410000577A77EE677A544B1B68033B07EE103AF9
:10411000B8EEC77AB0EE471AF2EE040AB0EE670ABC
:104120000620FDF7B9FC3B6818461BF0B7F84C4B6E
:10413000D3ED057A9FED497A77EE877A464B1B6877
:1041400007EE103AB8EEC77AB0EE471AF1EE0C0A55
:10415000B0EE670A0120FDF79FFC414BD3ED027AD8
:104160009FED3E7A77EE677A3B4B1B6807EE103A7D
:10417000B8EEC77AB0EE471AF1EE0C0AB0EE670A55
:104180000220FDF789FC364BD3ED047A9FED337A9C
:1041900077EE677A304B1B6807EE103AB8EEC77AB5
:1041A000B0EE471AF1EE0C0AB0EE670A0320FDF7F5
:1041B00073FC2B4BD3ED017A9FED287A77EE877A4B
:1041C000254B1B6807EE103AB8EEC77AB0EE471AD7
:1041D000F1EE0C0AB0EE670A0420FDF75DFC204BFF
:1041E000D3ED037A9FED1D7A77EE877A1A4B1B6821
:1041F00007EE103AB8EEC77AB0EE471AF1EE0C0AA5
:10420000B0EE670A0520FDF747FC154BD3ED007AA9
:104210009FED127A77EE677A0F4B1B6807EE103A24
:10422000B8EEC77AB0EE471AF1EE0C0AB0EE670AA4
:104230000620FDF731FC3B6818461BF02FF8FB68A1
:104240000133FB60FA68BB689A427FF7DFAC00BFBE
:104250001037BD4680BD00BF381100200000B442B9
:104260009814002080B584B000AF786039600C49A4
:104270000C48FCF7D1FB7B680B4A82FB0312DB176F
:10428000D31ABB60B2EE020A6FF002010020FDF704
:104290006FFA32201BF002F80123FB6022E300BF1B
:1042A0004C7F02080010014056555555DE4BD3EDAA
:1042B000057A9FEDDE7A77EE877ADD4B1B68033B4C
:1042C00007EE103AB8EEC77AB0EE471AF2EE040ADB
:1042D000B0EE670A0120FDF7DFFBD54B1B6807EE48
:1042E000903AF8EEE77AB0EE671AF1EE0C0A9FED1D
:1042F000CF0A0220FDF7D0FBCD4B1B6807EE903AAA
:10430000F8EEE77AB0EE671AF1EE0C0A9FEDC70AF5
:104310000320FDF7C1FBC44BD3ED017A9FEDC37AB7
:1043200077EE877AC24B1B68033B07EE103AB8EE74
:10433000C77AB0EE471AF2EE040AB0EE670A04201C
:10434000FDF7AAFBB84BD3ED037A9FEDB87A77EE71
:10435000877AB74B1B68033B07EE103AB8EEC77A73
:10436000B0EE471AF2EE040AB0EE670A0520FDF738
:1043700093FBAF4B1B6807EE903AF8EEE77AB0EE8E
:10438000671AF1EE0C0A9FEDA90A0620FDF784FBDF
:104390003B6818461AF082FFA34BD3ED057A9FEDD8
:1043A000A37A77EE677AA24B1B68033B07EE103ABD
:1043B000B8EEC77AB0EE471AF2EE040AB0EE670A1A
:1043C0000120FDF769FB984BD3ED027A9FED977AB8
:1043D00077EE877A964B1B6807EE103AB8EEC77AED
:1043E000B0EE471AF1EE0C0AB0EE670A0220FDF7B4
:1043F00053FB8D4BD3ED047A9FED8C7A77EE877A61
:104400008B4B1B6807EE103AB8EEC77AB0EE471A2E
:10441000F1EE0C0AB0EE670A0320FDF73DFB824B7C
:10442000D3ED017A9FED817A77EE677A804B1B6836
:10443000033B07EE103AB8EEC77AB0EE471AF2EE39
:10444000040AB0EE670A0420FDF726FB764BD3ED95
:10445000037A9FED767A77EE677A754B1B68033B9C
:1044600007EE103AB8EEC77AB0EE471AF2EE040A39
:10447000B0EE670A0520FDF70FFB6B4BD3ED007A1A
:104480009FED6A7A77EE877A694B1B6807EE103AE0
:10449000B8EEC77AB0EE471AF1EE0C0AB0EE670A32
:1044A0000620FDF7F9FA3B6818461AF0F7FE5E4B56
:1044B000D3ED057A9FED5D7A77EE677A5C4B1B68EA
:1044C00007EE103AB8EEC77AB0EE471AF1EE0C0AD2
:1044D000B0EE670A0120FDF7DFFA534BD3ED027A05
:1044E0009FED527A77EE877A514B1B6807EE103AB0
:1044F000B8EEC77AB0EE471AF1EE0C0AB0EE670AD2
:104500000220FDF7C9FA484BD3ED047A9FED477AB4
:1045100077EE877A464B1B6807EE103AB8EEC77AFB
:10452000B0EE471AF1EE0C0AB0EE670A0320FDF771
:10453000B3FA3D4BD3ED017A9FED3C7A77EE677A83
:104540003B4B1B6807EE103AB8EEC77AB0EE471A3D
:10455000F1EE0C0AB0EE670A0420FDF79DFA324B2B
:10456000D3ED037A9FED317A77EE677A304B1B6893
:1045700007EE103AB8EEC77AB0EE471AF1EE0C0A21
:10458000B0EE670A0520FDF787FA274BD3ED007AD6
:104590009FED267A77EE877A254B1B6807EE103A57
:1045A000B8EEC77AB0EE471AF1EE0C0AB0EE670A21
:1045B0000620FDF771FA3B6818461AF06FFE1C4B97
:1045C0001B6807EE903AF8EEE77AB0EE671AF1EE64
:1045D0000C0A9FED160A0120FDF75EFA124BD3ED8F
:1045E000027A9FED127A77EE877A114B1B68033BB4
:1045F00007EE103AB8EEC77AB0EE471AF2EE040AA8
:10460000B0EE670A0220FDF747FA074BD3ED047AB4
:104610009FED067A77EE877A054B1B68033B07EE22
:10462000103AB8EEC77A05E0981400200000B442B2
:1046300038110020B0EE471AF2EE040AB0EE670A15
:104640000320FDF729FAAC4B1B6807EE903AF8EE11
:10465000E77AB0EE671AF1EE0C0A9FEDA80A042083
:10466000FDF71AFAA44B1B6807EE903AF8EEE77ACA
:10467000B0EE671AF1EE0C0A9FEDA00A0520FDF7D7
:104680000BFA9F4BD3ED007A9FED9C7A77EE877AF9
:10469000994B1B68033B07EE103AB8EEC77AB0EEB1
:1046A000471AF2EE040AB0EE670A0620FDF7F4F9A5
:1046B0003B6818461AF0F2FD914BD3ED057A9FED59
:1046C0008F7A77EE877A8C4B1B6807EE103AB8EE3C
:1046D000C77AB0EE471AF1EE0C0AB0EE670A012075
:1046E000FDF7DAF9864BD3ED027A9FED847A77EE07
:1046F000677A814B1B68033B07EE103AB8EEC77A26
:10470000B0EE471AF2EE040AB0EE670A0220FDF797
:10471000C3F97B4BD3ED047A9FED787A77EE677A15
:10472000754B1B68033B07EE103AB8EEC77AB0EE44
:10473000471AF2EE040AB0EE670A0320FDF7ACF95F
:104740006F4BD3ED017A9FED6D7A77EE877A6A4BE6
:104750001B6807EE103AB8EEC77AB0EE471AF1EED2
:104760000C0AB0EE670A0420FDF796F9644BD3ED0E
:10477000037A9FED627A77EE877A5F4B1B6807EECC
:10478000103AB8EEC77AB0EE471AF1EE0C0AB0EE66
:10479000670A0520FDF780F9594BD3ED007A9FEDAC
:1047A000577A77EE677A544B1B68033B07EE103A53
:1047B000B8EEC77AB0EE471AF2EE040AB0EE670A16
:1047C0000620FDF769F93B6818461AF067FD4C4B67
:1047D000D3ED057A9FED497A77EE877A464B1B68D1
:1047E00007EE103AB8EEC77AB0EE471AF1EE0C0AAF
:1047F000B0EE670A0120FDF74FF9414BD3ED027A85
:104800009FED3E7A77EE677A3B4B1B6807EE103AD6
:10481000B8EEC77AB0EE471AF1EE0C0AB0EE670AAE
:104820000220FDF739F9364BD3ED047A9FED337A48
:1048300077EE677A304B1B6807EE103AB8EEC77A0E
:10484000B0EE471AF1EE0C0AB0EE670A0320FDF74E
:1048500023F92B4BD3ED017A9FED287A77EE877AF7
:10486000254B1B6807EE103AB8EEC77AB0EE471A30
:10487000F1EE0C0AB0EE670A0420FDF70DF9204BAB
:10488000D3ED037A9FED1D7A77EE877A1A4B1B687A
:1048900007EE103AB8EEC77AB0EE471AF1EE0C0AFE
:1048A000B0EE670A0520FDF7F7F8154BD3ED007A57
:1048B0009FED127A77EE677A0F4B1B6807EE103A7E
:1048C000B8EEC77AB0EE471AF1EE0C0AB0EE670AFE
:1048D0000620FDF7E1F83B6818461AF0DFFCFB689C
:1048E0000133FB60FA68BB689A427FF7DFAC00BF18
:1048F0001037BD4680BD00BF381100200000B44213
:104900009814002080B582B000AF78603960064905
:104910000648FCF781F83B68022B09D0052B00F014
:10492000458200F07BBC00BF647F0208001001409C
:10493000B2EE020A39680020FCF71AFF32201AF0A2
:10494000ADFCDF4BD3ED007A9FEDDE7A77EE877A10
:10495000DD4B1B6807EE103AB8EEC77AB0EE471A87
:10496000F1EE0C0AB0EE670A0120FDF795F8D44B82
:10497000D3ED037A9FEDD37A77EE877AD24B1B681B
:10498000033B07EE103AB8EEC77AB0EE471AF2EEE4
:10499000040AB0EE670A0220FDF77EF8C84BD3ED9B
:1049A000017A9FEDC87A77EE677AC74B1B68033BA5
:1049B00007EE103AB8EEC77AB0EE471AF2EE040AE4
:1049C000B0EE670A0320FDF767F8BD4BD3ED047A1C
:1049D0009FEDBC7A77EE677ABB4B1B6807EE103A07
:1049E000B8EEC77AB0EE471AF1EE0C0AB0EE670ADD
:1049F0000420FDF751F8B24BD3ED027A9FEDB17A66
:104A000077EE877AB04B1B6807EE103AB8EEC77A9C
:104A1000B0EE471AF1EE0C0AB0EE670A0520FDF77A
:104A20003BF8A74BD3ED057A9FEDA67A77EE877A10
:104A3000A54B1B68033B07EE103AB8EEC77AB0EE01
:104A4000471AF2EE040AB0EE670A0620FDF724F8D2
:104A50007B6818461AF022FC994BD3ED007A9FED43
:104A6000997A77EE877A984B1B6807EE103AB8EE82
:104A7000C77AB0EE471AF1EE0C0AB0EE670A0120D1
:104A8000FDF70AF88E4BD3ED037A9FED8E7A77EE21
:104A9000877A8D4B1B6807EE103AB8EEC77AB0EEF6
:104AA000471AF1EE0C0AB0EE670A0220FCF7F4FF99
:104AB000834BD3ED017A9FED837A77EE677A824B51
:104AC0001B6807EE103AB8EEC77AB0EE471AF1EE5F
:104AD0000C0AB0EE670A0320FCF7DEFF784BD3ED3B
:104AE000047A9FED787A77EE677A774B1B6807EE4A
:104AF000103AB8EEC77AB0EE471AF1EE0C0AB0EEF3
:104B0000670A0420FCF7C8FF6D4BD3ED027A9FEDD6
:104B10006D7A77EE877A6C4B1B6807EE103AB8EE29
:104B2000C77AB0EE471AF1EE0C0AB0EE670A05201C
:104B3000FCF7B2FF624BD3ED057A9FED627A77EE18
:104B4000877A614B1B6807EE103AB8EEC77AB0EE71
:104B5000471AF1EE0C0AB0EE670A0620FCF79CFF3C
:104B60007B6818461AF09AFB554BD3ED007A9FEDFF
:104B7000557A77EE677A544B1B68033B07EE103A81
:104B8000B8EEC77AB0EE471AF2EE040AB0EE670A42
:104B90000120FCF781FF4A4BD3ED037A9FED497A60
:104BA00077EE677A484B1B6807EE103AB8EEC77A83
:104BB000B0EE471AF1EE0C0AB0EE670A0220FCF7DD
:104BC0006BFF3F4BD3ED017A9FED3E7A77EE877A0C
:104BD0003D4B1B6807EE103AB8EEC77AB0EE471AA5
:104BE000F1EE0C0AB0EE670A0320FCF755FF344BD8
:104BF000D3ED047A9FED337A77EE877A324B1B68D8
:104C0000033B07EE103AB8EEC77AB0EE471AF2EE61
:104C1000050AB0EE670A0420FCF73EFF284BD3EDEF
:104C2000027A9FED287A77EE677A274B1B68033B61
:104C300007EE103AB8EEC77AB0EE471AF2EE040A61
:104C4000B0EE670A0520FCF727FF1D4BD3ED057A70
:104C50009FED1C7A77EE677A1B4B1B6807EE103AC4
:104C6000B8EEC77AB0EE471AF1EE0C0AB0EE670A5A
:104C70000620FCF711FF7B6818461AF00FFB104B5B
:104C8000D3ED007A9FED0F7A77EE677A0E4B1B68B3
:104C900007EE103AB8EEC77AB0EE471AF1EE0C0AFA
:104CA000B0EE670A0120FCF7F7FE054BD3ED037A5F
:104CB0009FED047A77EE677A034B1B6806E000BF2E
:104CC000981400200000B4423811002007EE103A7A
:104CD000B8EEC77AB0EE471AF1EE0C0AB0EE670AEA
:104CE0000220FCF7D9FE2E4BD3ED017A9FED2D7AF1
:104CF00077EE877A2C4B1B6807EE103AB8EEC77A2E
:104D0000B0EE471AF1EE0C0AB0EE670A0320FCF78A
:104D1000C3FE234BD3ED047A9FED227A77EE877A98
:104D2000214B1B6807EE103AB8EEC77AB0EE471A6F
:104D3000F1EE0C0AB0EE670A0420FCF7ADFE184B4A
:104D4000D3ED027A9FED177A77EE677A164B1B68E0
:104D500007EE103AB8EEC77AB0EE471AF1EE0C0A39
:104D6000B0EE670A0520FCF797FE0D4BD3ED057AF0
:104D70009FED0C7A77EE677A0B4B1B6807EE103AC3
:104D8000B8EEC77AB0EE471AF1EE0C0AB0EE670A39
:104D90000620FCF781FE7B6818461AF07FFA3DE298
:104DA000981400200000B44238110020B2EE020A2C
:104DB00039680020FCF7DCFC32201AF06FFADF4B78
:104DC000D3ED007A9FEDDE7A77EE877ADD4B1B68B4
:104DD00007EE103AB8EEC77AB0EE471AF1EE0C0AB9
:104DE000B0EE670A0120FCF757FED44BD3ED037AEF
:104DF0009FEDD37A77EE877AD24B1B68033B07EEA1
:104E0000103AB8EEC77AB0EE471AF2EE040AB0EEE6
:104E1000670A0220FCF740FEC84BD3ED017A9FEDF4
:104E2000C87A77EE677AC74B1B68033B07EE103AE8
:104E3000B8EEC77AB0EE471AF2EE040AB0EE670A8F
:104E40000320FCF729FEBD4BD3ED047A9FEDBC7A1D
:104E500077EE677ABB4B1B6807EE103AB8EEC77A5D
:104E6000B0EE471AF1EE0C0AB0EE670A0420FCF728
:104E700013FEB24BD3ED027A9FEDB17A77EE877ACB
:104E8000B04B1B6807EE103AB8EEC77AB0EE471A7F
:104E9000F1EE0C0AB0EE670A0520FCF7FDFDA74B0A
:104EA000D3ED057A9FEDA67A77EE877AA54B1B683E
:104EB000033B07EE103AB8EEC77AB0EE471AF2EEAF
:104EC000040AB0EE670A0620FCF7E6FD7B68184688
:104ED0001AF0E4F9994BD3ED007A9FED997A77EEC9
:104EE000877A984B1B6807EE103AB8EEC77AB0EE97
:104EF000471AF1EE0C0AB0EE670A0120FCF7CCFD70
:104F00008E4BD3ED037A9FED8E7A77EE877A8D4BB9
:104F10001B6807EE103AB8EEC77AB0EE471AF1EE0A
:104F20000C0AB0EE670A0220FCF7B6FD834BD3ED06
:104F3000017A9FED837A77EE677A824B1B6807EEE2
:104F4000103AB8EEC77AB0EE471AF1EE0C0AB0EE9E
:104F5000670A0320FCF7A0FD784BD3ED047A9FEDA0
:104F6000787A77EE677A774B1B6807EE103AB8EEDF
:104F7000C77AB0EE471AF1EE0C0AB0EE670A0420C9
:104F8000FCF78AFD6D4BD3ED027A9FED6D7A77EEDB
:104F9000877A6C4B1B6807EE103AB8EEC77AB0EE12
:104FA000471AF1EE0C0AB0EE670A0520FCF774FD13
:104FB000624BD3ED057A9FED627A77EE877A614B8B
:104FC0001B6807EE103AB8EEC77AB0EE471AF1EE5A
:104FD0000C0AB0EE670A0620FCF75EFD7B681846F7
:104FE0001AF05CF9554BD3ED007A9FED557A77EEC8
:104FF000677A544B1B68033B07EE103AB8EEC77A4A
:10500000B0EE471AF2EE040AB0EE670A0120FCF790
:1050100043FD4A4BD3ED037A9FED497A77EE677AE9
:10502000484B1B6807EE103AB8EEC77AB0EE471A45
:10503000F1EE0C0AB0EE670A0220FCF72DFD3F4BA3
:10504000D3ED017A9FED3E7A77EE877A3D4B1B6870
:1050500007EE103AB8EEC77AB0EE471AF1EE0C0A36
:10506000B0EE670A0320FCF717FD344BD3ED047A4A
:105070009FED337A77EE877A324B1B68033B07EE5E
:10508000103AB8EEC77AB0EE471AF2EE050AB0EE63
:10509000670A0420FCF700FD284BD3ED027A9FED50
:1050A000287A77EE677A274B1B68033B07EE103AA6
:1050B000B8EEC77AB0EE471AF2EE040AB0EE670A0D
:1050C0000520FCF7E9FC1D4BD3ED057A9FED1C7A1A
:1050D00077EE677A1B4B1B6807EE103AB8EEC77A7B
:1050E000B0EE471AF1EE0C0AB0EE670A0620FCF7A4
:1050F000D3FC7B6818461AF0D1F8104BD3ED007A38
:105100009FED0F7A77EE677A0E4B1B6807EE103A29
:10511000B8EEC77AB0EE471AF1EE0C0AB0EE670AA5
:105120000120FCF7B9FC054BD3ED037A9FED047A1F
:1051300077EE677A034B1B6806E000BF98140020E7
:105140000000B4423811002007EE103AB8EEC77ADA
:10515000B0EE471AF1EE0C0AB0EE670A0220FCF737
:105160009BFC304BD3ED017A9FED2F7A77EE877A57
:105170002E4B1B6807EE103AB8EEC77AB0EE471A0E
:10518000F1EE0C0AB0EE670A0320FCF785FC254B14
:10519000D3ED047A9FED247A77EE877A234B1B6850
:1051A00007EE103AB8EEC77AB0EE471AF1EE0C0AE5
:1051B000B0EE670A0420FCF76FFC1A4BD3ED027ABD
:1051C0009FED197A77EE677A184B1B6807EE103A55
:1051D000B8EEC77AB0EE471AF1EE0C0AB0EE670AE5
:1051E0000520FCF759FC0F4BD3ED057A9FED0E7AA5
:1051F00077EE677A0D4B1B6807EE103AB8EEC77A68
:10520000B0EE471AF1EE0C0AB0EE670A0620FCF782
:1052100043FC7B6818461AF041F800BF00BF08370E
:10522000BD4680BD981400200000B4423811002013
:1052300080B582B000AF7860396006490648FBF758
:10524000EBFB3B68022B09D0052B00F0478200F0F6
:105250007FBC00BF647F0208001001403B685B42D6
:10526000B2EE020A19460020FCF782FA32201AF048
:1052700015F8DF4BD3ED057A9FEDDE7A77EE877A6E
:10528000DD4B1B68033B07EE103AB8EEC77AB0EE71
:10529000471AF2EE040AB0EE670A0120FCF7FCFBA5
:1052A000D34BD3ED027A9FEDD37A77EE877AD24B48
:1052B0001B6807EE103AB8EEC77AB0EE471AF1EE67
:1052C0000C0AB0EE670A0220FCF7E6FBC84BD3EDF0
:1052D000047A9FEDC87A77EE677AC74B1B6807EEB2
:1052E000103AB8EEC77AB0EE471AF1EE0C0AB0EEFB
:1052F000670A0320FCF7D0FBBD4BD3ED017A9FED8D
:10530000BD7A77EE677ABC4B1B68033B07EE103A19
:10531000B8EEC77AB0EE471AF2EE040AB0EE670AAA
:105320000420FCF7B9FBB24BD3ED037A9FEDB17AC1
:1053300077EE877AB04B1B68033B07EE103AB8EE66
:10534000C77AB0EE471AF2EE040AB0EE670A0520FB
:10535000FCF7A2FBA64BD3ED007A9FEDA67A77EE81
:10536000877AA54B1B6807EE103AB8EEC77AB0EE05
:10537000471AF1EE0C0AB0EE670A0620FCF78CFB28
:105380007B68184619F08AFF994BD3ED057A9FED9B
:10539000997A77EE877A984B1B6807EE103AB8EE49
:1053A000C77AB0EE471AF1EE0C0AB0EE670A012098
:1053B000FCF772FB8E4BD3ED027A9FED8E7A77EE7F
:1053C000877A8D4B1B6807EE103AB8EEC77AB0EEBD
:1053D000471AF1EE0C0AB0EE670A0220FCF75CFBFC
:1053E000834BD3ED047A9FED837A77EE677A824B15
:1053F0001B6807EE103AB8EEC77AB0EE471AF1EE26
:105400000C0AB0EE670A0320FCF746FB784BD3ED9D
:10541000017A9FED787A77EE677A774B1B6807EE13
:10542000103AB8EEC77AB0EE471AF1EE0C0AB0EEB9
:10543000670A0420FCF730FB6D4BD3ED037A9FED38
:105440006D7A77EE877A6C4B1B6807EE103AB8EEF0
:10545000C77AB0EE471AF1EE0C0AB0EE670A0520E3
:10546000FCF71AFB624BD3ED007A9FED627A77EE80
:10547000877A614B1B6807EE103AB8EEC77AB0EE38
:10548000471AF1EE0C0AB0EE670A0620FCF704FB9F
:105490007B68184619F002FF554BD3ED057A9FED56
:1054A000557A77EE677A544B1B6807EE103AB8EEE0
:1054B000C77AB0EE471AF1EE0C0AB0EE670A012087
:1054C000FCF7EAFA4A4BD3ED027A9FED4A7A77EE7F
:1054D000677A494B1B68033B07EE103AB8EEC77A70
:1054E000B0EE471AF2EE040AB0EE670A0220FCF7AB
:1054F000D3FA3F4BD3ED047A9FED3E7A77EE877A6D
:105500003D4B1B68033B07EE103AB8EEC77AB0EE8E
:10551000471AF2EE050AB0EE670A0320FCF7BCFA60
:10552000334BD3ED017A9FED337A77EE877A324BA6
:105530001B6807EE103AB8EEC77AB0EE471AF1EEE4
:105540000C0AB0EE670A0420FCF7A6FA284BD3ED4C
:10555000037A9FED287A77EE677A274B1B6807EE70
:10556000103AB8EEC77AB0EE471AF1EE0C0AB0EE78
:10557000670A0520FCF790FA1D4BD3ED007A9FEDEA
:105580001D7A77EE677A1C4B1B68033B07EE103AD7
:10559000B8EEC77AB0EE471AF2EE040AB0EE670A28
:1055A0000620FCF779FA7B68184619F077FE104B55
:1055B000D3ED057A9FED0F7A77EE677A0E4B1B6875
:1055C00007EE103AB8EEC77AB0EE471AF1EE0C0AC1
:1055D000B0EE670A0120FCF75FFA054BD3ED027AC3
:1055E0009FED047A77EE677A034B1B6806E000BFF5
:1055F000981400200000B4423811002007EE103A41
:10560000B8EEC77AB0EE471AF1EE0C0AB0EE670AB0
:105610000220FCF741FA2E4BD3ED047A9FED2D7A50
:1056200077EE877A2C4B1B6807EE103AB8EEC77AF4
:10563000B0EE471AF1EE0C0AB0EE670A0320FCF751
:105640002BFA234BD3ED017A9FED227A77EE877AFE
:10565000214B1B6807EE103AB8EEC77AB0EE471A36
:10566000F1EE0C0AB0EE670A0420FCF715FA184BAD
:10567000D3ED037A9FED177A77EE677A164B1B68A6
:1056800007EE103AB8EEC77AB0EE471AF1EE0C0A00
:10569000B0EE670A0520FCF7FFF90D4BD3ED007A59
:1056A0009FED0C7A77EE677A0B4B1B6807EE103A8A
:1056B000B8EEC77AB0EE471AF1EE0C0AB0EE670A00
:1056C0000620FCF7E9F97B68184619F0E7FD3FE290
:1056D000981400200000B442381100203B685B425F
:1056E000B2EE020A19460020FCF742F8322019F007
:1056F000D5FDDF4BD3ED057A9FEDDE7A77EE877A25
:10570000DD4B1B68033B07EE103AB8EEC77AB0EEEC
:10571000471AF2EE040AB0EE670A0120FCF7BCF962
:10572000D34BD3ED027A9FEDD37A77EE877AD24BC3
:105730001B6807EE103AB8EEC77AB0EE471AF1EEE2
:105740000C0AB0EE670A0220FCF7A6F9C84BD3EDAD
:10575000047A9FEDC87A77EE677AC74B1B6807EE2D
:10576000103AB8EEC77AB0EE471AF1EE0C0AB0EE76
:10577000670A0320FCF790F9BD4BD3ED017A9FED4A
:10578000BD7A77EE677ABC4B1B68033B07EE103A95
:10579000B8EEC77AB0EE471AF2EE040AB0EE670A26
:1057A0000420FCF779F9B24BD3ED037A9FEDB17A7F
:1057B00077EE877AB04B1B68033B07EE103AB8EEE2
:1057C000C77AB0EE471AF2EE040AB0EE670A052077
:1057D000FCF762F9A64BD3ED007A9FEDA67A77EE3F
:1057E000877AA54B1B6807EE103AB8EEC77AB0EE81
:1057F000471AF1EE0C0AB0EE670A0620FCF74CF9E6
:105800007B68184619F04AFD994BD3ED057A9FED58
:10581000997A77EE877A984B1B6807EE103AB8EEC4
:10582000C77AB0EE471AF1EE0C0AB0EE670A012013
:10583000FCF732F98E4BD3ED027A9FED8E7A77EE3C
:10584000877A8D4B1B6807EE103AB8EEC77AB0EE38
:10585000471AF1EE0C0AB0EE670A0220FCF71CF9B9
:10586000834BD3ED047A9FED837A77EE677A824B90
:105870001B6807EE103AB8EEC77AB0EE471AF1EEA1
:105880000C0AB0EE670A0320FCF706F9784BD3ED5B
:10589000017A9FED787A77EE677A774B1B6807EE8F
:1058A000103AB8EEC77AB0EE471AF1EE0C0AB0EE35
:1058B000670A0420FCF7F0F86D4BD3ED037A9FEDF7
:1058C0006D7A77EE877A6C4B1B6807EE103AB8EE6C
:1058D000C77AB0EE471AF1EE0C0AB0EE670A05205F
:1058E000FCF7DAF8624BD3ED007A9FED627A77EE3F
:1058F000877A614B1B6807EE103AB8EEC77AB0EEB4
:10590000471AF1EE0C0AB0EE670A0620FCF7C4F85D
:105910007B68184619F0C2FC554BD3ED057A9FED14
:10592000557A77EE677A544B1B6807EE103AB8EE5B
:10593000C77AB0EE471AF1EE0C0AB0EE670A012002
:10594000FCF7AAF84A4BD3ED027A9FED4A7A77EE3C
:10595000677A494B1B68033B07EE103AB8EEC77AEB
:10596000B0EE471AF2EE040AB0EE670A0220FCF726
:1059700093F83F4BD3ED047A9FED3E7A77EE877A2A
:105980003D4B1B68033B07EE103AB8EEC77AB0EE0A
:10599000471AF2EE050AB0EE670A0320FCF77CF81E
:1059A000334BD3ED017A9FED337A77EE877A324B22
:1059B0001B6807EE103AB8EEC77AB0EE471AF1EE60
:1059C0000C0AB0EE670A0420FCF766F8284BD3ED0A
:1059D000037A9FED287A77EE677A274B1B6807EEEC
:1059E000103AB8EEC77AB0EE471AF1EE0C0AB0EEF4
:1059F000670A0520FCF750F81D4BD3ED007A9FEDA8
:105A00001D7A77EE677A1C4B1B68033B07EE103A52
:105A1000B8EEC77AB0EE471AF2EE040AB0EE670AA3
:105A20000620FCF739F87B68184619F037FC104B54
:105A3000D3ED057A9FED0F7A77EE677A0E4B1B68F0
:105A400007EE103AB8EEC77AB0EE471AF1EE0C0A3C
:105A5000B0EE670A0120FCF71FF8054BD3ED027A80
:105A60009FED047A77EE677A034B1B6806E000BF70
:105A7000981400200000B4423811002007EE103ABC
:105A8000B8EEC77AB0EE471AF1EE0C0AB0EE670A2C
:105A90000220FCF701F8304BD3ED047A9FED2F7A0A
:105AA00077EE877A2E4B1B6807EE103AB8EEC77A6E
:105AB000B0EE471AF1EE0C0AB0EE670A0320FBF7CE
:105AC000EBFF254BD3ED017A9FED247A77EE877AB1
:105AD000234B1B6807EE103AB8EEC77AB0EE471AB0
